:100000000C9434000C9446000C9446000C9446006A
:100010000C9446000C9446000C9446000C94460048
:100020000C9446000C941E010C9446000C9446005F
:100030000C9446000C9446000C9446000C94460028
:100040000C94B1030C9446000C9446000C944600AA
:100050000C9446000C9446000C9446000C94460008
:100060000C94F4020C94460011241FBECFEFD8E08C
:10007000DEBFCDBF11E0A0E0B1E001C01D92AD3305
:10008000B107E1F70E9442010C94CA030C940000EE
:10009000DF93CF930F92CDB7DEB78983DA01F901F1
:1000A0008981882321F590910601990F809105019E
:1000B000980F9295907F20910C0122952F7080913E
:1000C0000D01807F280F80910E0182958F70980F0F
:1000D00090930F012093100182E0808380910F01A3
:1000E000818380911001828383E08C936DC0FB013A
:1000F0008081843830F4813850F4813009F064C054
:1001000045C0843861F08A3A09F05EC053C040911E
:100110000C0130910D0120910E0190E02DC0FB01EA
:1001200081818170809305018181827080930601B5
:100130004BC0E92FF0E0DB01AE0FBF1F8C9181387F
:1001400039F43196E60FF71F20812295207F13C0E6
:100150008C91823839F43196E60FF71F3081329551
:10016000307F09C08C91833831F43196E60FF71F48
:1001700040814295407F9E5F89819817D0F24093DD
:100180000C0130930D0120930E011EC08981843033
:10019000D9F4FB0181818295807F80930E01828159
:1001A0008295807F80930D0183818295807F8093EB
:1001B0000C010AC010920C0110920D0110920E0158
:1001C000FB018181809302010F90CF91DF9108950F
:1001D0009FB7F89482E08093B100E0E7F0E080817F
:1001E000816080839FBF78940895909107019F5FFD
:1001F00090930701992361F480910C0181115C9A1D
:1002000080910D0181115B9A80910E0181115A9AA2
:1002100080910C018F3F19F0981709F45C98809138
:100220000D018F3F19F0981709F45B9880910E012A
:100230008F3F19F0981709F45A9808951F920F925A
:100240000FB60F9211242F933F934F935F936F93A9
:100250007F938F939F93AF93BF93EF93FF930E94EE
:10026000F500FF91EF91BF91AF919F918F917F9199
:100270006F915F914F913F912F910F900FBE0F9013
:100280001F90189510920F011092100110920C01FE
:1002900010920D0110920E010E944D03259A2D9A85
:1002A0008AB18C618AB95C985B985A980E948B03DA
:1002B0000E94E8008AEA60E048E450E023E532E08A
:1002C0000E94B402FFCF80910801909109010E9421
:1002D000A7038823F1F180910B01833001F1843071
:1002E00028F4813069F08230C0F407C08530E1F035
:1002F0008530B8F0863029F51BC08FEF60E002C072
:1003000080E06FEF40E00E946E030E9450038091F6
:100310000B018F5F80930B0114C080E006C08FEF4C
:10032000F0CF80E06FEF02C08FEF60E04FEFEBCFD8
:100330008FEF6FEF4FEF0E946E030E9450031092F9
:100340000B0184EF91E00E949D039093090180933B
:100350000801089580910801909109010E94A70366
:10036000882309F49FC080910A01813069F18130AE
:1003700020F0823009F08EC05CC080E060E04FEF7A
:100380000E945F038FEF60E040E00E945F038FEF09
:1003900060E040E00E945F0380E060E04FEF0E9479
:1003A0005F038FEF60E040E00E945F038FEF60E04B
:1003B00040E00E945F0380E060E04FEF0E945F0337
:1003C0008FEF60E040E026C08FEF60E040E00E94E9
:1003D0005F0380E060E04FEF0E945F038FEF60E01B
:1003E00040E00E945F038FEF60E040E00E945F0307
:1003F00080E060E04FEF0E945F038FEF60E040E03D
:100400000E945F038FEF60E040E00E945F0380E0A6
:1004100060E04FEF0E945F038FEF60E040E00E94DA
:100420005F030E94500380910A018F5F80930A014D
:1004300031C08FEF60E040E00E945F038FEF60E02B
:1004400040E00E945F0380E060E04FEF0E945F03A6
:100450008FEF60E040E00E945F038FEF60E040E0DC
:100460000E945F0380E060E04FEF0E945F038FEF28
:1004700060E040E00E945F038FEF60E040E00E9498
:100480005F0380E060E04FEF0E945F030E94500333
:1004900010920A0184E690E00E949D039093090166
:1004A00080930801089580910001909101010E94BC
:1004B000A7038823C1F180910601880F909105015F
:1004C000890F8295807F40910E0160910D012091EE
:1004D0000C01942F92959F70890F80930F01822FAA
:1004E00082958F70962F907F890F80931001809155
:1004F0000201882359F0813019F0823061F403C081
:100500000E94AA0108C00E94630105C0822F0E94B8
:100510006E030E9450038AE090E00E949D03909336
:1005200001018093000180910301909104010E94D8
:10053000A703882361F085B190E2892785B984EF0C
:1005400091E00E949D03909304018093030108951C
:100550008093BA00ECEBF0E080818F7D8083808116
:1005600085648083789408958093390150931401B1
:100570004093130130931201209311011092260130
:100580001092370110923801109215018093BA0031
:100590008091BC008F7D8093BC008091BC008564FD
:1005A0008093BC007894E0911101F0911201309792
:1005B00009F00995809115018230A9F71092370151
:1005C00010923801E0911301F091140180912601FD
:1005D00066E171E047E351E027E231E009951092CE
:1005E000260110921501DFCF1F920F920FB60F92C6
:1005F00011248F939F93EF93FF938091B90090E024
:10060000887F9070803A9105A9F1813A91053CF478
:100610008036910569F18038910599F507C0883ACF
:10062000910599F0883B910561F50FC09091BB0051
:10063000809126018F30E0F4E82FF0E0EA5EFE4F73
:1006400090838F5F8093260113C090913801809131
:100650003701981758F4E92FF0E0E95DFE4F8081EB
:100660008093BB009F5F9093380102C01092BB0043
:1006700085EC08C085EC8093BC0082E08093150176
:1006800003C085ED8093BC00FF91EF919F918F9106
:100690000F900FBE0F901F901895209A219A0895E1
:1006A0002898089598E0289887FF02C0299A01C0E9
:1006B0002998289A915011F0880FF5CF08950F933B
:1006C0001F93162F042F0E945203812F0E94520362
:1006D000802F0E9452031F910F910895FF920F9354
:1006E0001F93CF93DF93F82E062F142FC0E0D0E096
:1006F0008F2D0E945203802F0E945203812F0E944F
:1007000052032196CA30D10599F7DF91CF911F91FD
:100710000F91FF9008959FB7F89484E085BD81EC18
:1007200086BDEEE6F0E080818160808310923B011F
:1007300010923A019FBF7894089520913A01309128
:100740003B0121503040280F391FC90108952091E5
:100750003A0130913B01821B930B80709078892F76
:1007600008951F920F920FB60F9211248F939F93AB
:1007700080913A0190913B01019690933B018093C7
:100780003A0181EC86BD9F918F910F900FBE0F9023
:080790001F901895F894FFCFAB
:00000001FF
